:100000000C9434000C9451000C9451000C94510049
:100010000C9451000C9451000C9451000C9451001C
:100020000C9451000C9451000C9451000C9453000A
:100030000C9451000C9451000C9451000C945100FC
:100040000C9451000C9451000C9451000C945100EC
:100050000C9451000C9451000C9451000C945100DC
:100060000C9451000C94510011241FBECFEFD8E026
:10007000DEBFCDBF11E0A0E0B1E0E8E8F9E002C0EA
:1000800005900D92A83CB107D9F721E0A8ECB1E0AA
:1000900001C01D92A03DB207E1F70E94E4000C945C
:1000A000C2040C9400002F932FB72F933F938F938C
:1000B0009F93EF93FF93E8E8F0E080819181209196
:1000C000C8013091C901820F931F9183808385B14C
:1000D00094E0892785B9FF91EF919F918F913F918E
:1000E0002F912FBF2F91189580E091E09093CD0133
:1000F0008093CC01519A50981092C50089E1809369
:10010000C400E1ECF0E080818860808380818061C0
:10011000808386E08093C20008959091C00095FF8F
:10012000FCCF8093C6000895CF93C82F8A3019F46E
:100130008DE00E948D008C2F0E948D0090E080E069
:10014000CF9108958091C00087FFFCCF8091C600B9
:100150000895CF92DF92EF92FF921F93CF93DF9398
:10016000EC01F12CE12C6B0181E0C81AD1080E944E
:10017000A200182F0E948D001A3051F41882C70176
:10018000DF91CF911F91FF90EF90DF90CF90089576
:100190001D30A1F319938FEFE81AF80ACE14DF048B
:1001A00031F7ECCF8091C000881F8827881F089501
:1001B000CF93DF93EC018991811103C0DF91CF913F
:1001C00008950E948D00F7CFCF93DF93CDB7DEB7B0
:1001D000A0970FB6F894DEBF0FBECDBF82EA97E0BE
:1001E0009093C9018093C80184E084B9289A8091D2
:1001F000810081608093810080916F008260809394
:100200006F0078940E9474008EE091E00E94E301F8
:1002100084E391E00E94E30135E5E32E31E0F32E23
:100220000DEA11E0FF92EF920E94CF016FE170E0C2
:10023000CE0101960E94A900CE0101960E94930171
:100240004B015C010F900F9089E9881681EB9806AD
:1002500081E0A806B104F0F181E691E00E94E3019B
:1002600028E9822E21EB922EAA24A394B12CA50179
:100270009401220F331F441F551F60E072E18AE78B
:1002800090E00E9471012F5F3F4F3093C90120938E
:10029000C8012091C8013091C9012150310950E0B5
:1002A00040E0220F331F441F551F60E072E18AE7D0
:1002B00090E00E9471015F934F933F932F931F93A0
:1002C0000F930E94CF010F900F900F900F900F90FF
:1002D0000F90A8CF81149104A104B10409F4A2CF16
:1002E000C6CFA1E21A2EAA1BBB1BFD010DC0AA1F7F
:1002F000BB1FEE1FFF1FA217B307E407F50720F08F
:10030000A21BB30BE40BF50B661F771F881F991F09
:100310001A9469F760957095809590959B01AC0152
:10032000BD01CF0108951F93FC0199278827BC01C7
:10033000E89411911032E9F3193010F01E30C8F32F
:100340001B3251F01D3249F4689406C00E94BA0174
:10035000610F711D811D911D119110531A30B0F361
:100360003EF490958095709561957F4F8F4F9F4F8C
:100370001F910895592F482F372F262F660F771F6B
:10038000881F991F660F771F881F991F620F731FA1
:10039000841F951F660F771F881F991F0895B0E06F
:1003A000A0E0E5EDF1E00C949B04FE01359661912F
:1003B0007191AF018091CC019091CD010E940F020B
:1003C000E2E00C94B7040F931F93CF93DF93E09177
:1003D000CC01F091CD01238110E000E021FD0EC0A1
:1003E0000FEF1FEFC801DF91CF911F910F9108957B
:1003F0000995892B11F00FEF1FEFCE01EC018991C8
:100400006091CC017091CD01DB011896ED91FC91CA
:100410008111EECF8AE00995892B21F3E1CFAFE07E
:10042000B0E0E5E1F2E00C948B047C013B018A0131
:10043000DC0117961C921E92169713968C9181FFE1
:10044000C3C19AE0292EFE0131964F01D7011396C0
:100450009C91F30193FD859193FF81913F01882346
:1004600009F448C1853239F493FD859193FF819158
:100470003F01853229F4B70190E00E94FD03E6CFE9
:10048000B12C412C512CBFE1B51538F08B3209F15C
:1004900088F4803201F1833221F157FC3AC020ED1B
:1004A000280F2A3040F556FE1FC0B29C200D1124A3
:1004B000B22E06C08D3291F0803379F7689450F8EF
:1004C000F30193FD859193FF81913F018111DBCF72
:1004D00020C0689451F8689452F8F2CF689453F8A9
:1004E000EFCF689454F8ECCF429C200D1124422E9B
:1004F000689455F8E5CF8E3229F456FCFBC0689419
:1005000056F8DECF8C3619F4689457F8D9CF883670
:10051000B9F2982F9F7D95549330C0F08336A1F1A6
:100520008337C1F1833509F05BC0D801CD90DD90F0
:100530008D016B2D70E056FC02C06FEF7FEFC6019E
:100540000E94E7035C01689457F80AC00C5F1F4FD4
:10055000EFE3E983AA24A394B12C6401E89457F84B
:1005600053FC04C04A141B0409F018F5342CA114E0
:10057000B10431F5332009F469CFB70180E290E08E
:100580000E94FD033A94F6CFD8018C9189830E5FC7
:100590001F4FE0CFF801C190D1908F016B2D70E01B
:1005A00056FC02C06FEF7FEFC6010E94F2035C01B0
:1005B000D5CFB70180E290E00E94FD034A94D2CFEC
:1005C000F60157FC859157FE81916F01B70190E0CC
:1005D0000E94FD0331103A94B1E0AB1AB108C7CFC5
:1005E000843619F0893609F074C0F80157FE6AC0E4
:1005F00061917191819191918F01E52DEF76DE2EC0
:1006000097FF09C090958095709561957F4F8F4FAA
:100610009F4F6894D7F82AE030E0A4010E942D048F
:10062000C82EC818AC2C5D2CD6FE0CC0E89450F82F
:10063000CB1440F4D4FE05C0D2FC03C05D2D5E7E19
:10064000552EAB2C54FE98C0FE01EC0DF11D80819F
:10065000803309F08AC0652D697E562E752D78701D
:10066000372E53FC98C050FE92C0BC2CA41418F432
:100670004C0CB42CBA1854FE94C0B70180E390E03F
:100680000E94FD0352FE09C088E790E051FE02C0BF
:1006900088E590E0B7010E94FD03CB1408F48DC0FB
:1006A000CA94D12C8FEFC81AD80AC80CD91CD6010D
:1006B0008E916D01B70190E00E94FD038C149D04A2
:1006C000B1F758CF61917191072E000C880B990BEF
:1006D00093CFD52CE894D4F82AE030E0853739F16F
:1006E000F52DF97FDF2E8037A9F058F48835A9F071
:1006F0008F36D9F0F701868197812F96E2E10C942D
:10070000A7048837B9F7D4FE02C06894D2F820E174
:1007100030E00DC06894D4F8F6CF54FE03C02F2FFC
:100720002660D22E20E132E002C028E030E0F8015D
:10073000D7FE15C041915191619171914C875D87B0
:100740006E877F878F01A4016C857D858E859F854F
:100750000E942D04C82EC818E894D7F863CF819161
:100760009191AC0170E060E0E9CF52FC02C0A3942B
:1007700075CFA394A39472CF852D867809F46ECF9C
:10078000F6CFB70180E290E00E94FD03A394A41489
:10079000C0F3312C70CF342C3A18A41408F46BCF6A
:1007A000F8CF852D867809F478CF8BE251FE80E270
:1007B00057FC8DE2B70190E06ECFB70180E390E087
:1007C0000E94FD03BA9469CF8FEF9FEF96CFFC0193
:1007D0000590615070400110D8F7809590958E0F6C
:1007E0009F1F0895FC016150704001900110D8F7DF
:1007F000809590958E0F9F1F08950F931F93CF9311
:10080000DF93182F092FEB018B8181FD09C01FEFAA
:100810000FEF812F902FDF91CF911F910F910895AE
:1008200082FF14C02E813F818C819D81281739075A
:100830003CF4E881F981CF01019699838883108384
:100840008E819F8101969F838E83E3CFE885F98512
:10085000812F0995892BA1F3DACFFA01AA27283035
:1008600051F1203181F1E8946F936E7F6E5F7F4F7D
:100870008F4F9F4FAF4FB1E03ED0B4E03CD0670FF9
:10088000781F891F9A1FA11D680F791F8A1F911D4C
:10089000A11D6A0F711D811D911DA11D20D009F49C
:1008A00068943F912AE0269F11243019305D3193DE
:1008B000DEF6CF010895462F4770405D4193B3E0C7
:1008C0000FD0C9F7F6CF462F4F70405D4A3318F06E
:1008D000495D31FD4052419302D0A9F7EACFB4E01F
:1008E000A6959795879577956795BA95C9F70097D7
:1008F0006105710508959B01AC010A2E0694579578
:10090000479537952795BA95C9F7620F731F841FCE
:10091000951FA01D08952F923F924F925F926F9264
:100920007F928F929F92AF92BF92CF92DF92EF927F
:10093000FF920F931F93CF93DF93CDB7DEB7CA1B00
:10094000DB0B0FB6F894DEBF0FBECDBF09942A882B
:10095000398848885F846E847D848C849B84AA84D3
:10096000B984C884DF80EE80FD800C811B81AA8160
:10097000B981CE0FD11D0FB6F894DEBF0FBECDBF2B
:08098000ED010895F894FFCF8A
:100988000000000200000000940000000000537105
:100998007561726520776176652067656E6572613D
:1009A800746F7220666F722041546D6567613332CF
:1009B80038700D004279204A657375732043616C65
:1009C80076696E6F2D46726167612028632920322F
:1009D8003031380D004672657175656E63793A205D
:1009E800000D0A5761726E696E673A205468652077
:1009F8006D6178696D756D206672657175656E6378
:100A08007920746861742063616E2062652067656F
:100A18006E6572617465642069732061726F756EAA
:100A28006420313131303030487A2E0D000D0A46BD
:100A380072657175656E63792073657420746F3A99
:080A480020256C640D0A00007A
:00000001FF
