:100000000C94B5000C94D2000C94D2000C94D20045
:100010000C94D2000C94D2000C94D2000C94D20018
:100020000C94D2000C94D2000C94D2000C94D20008
:100030000C94D2000C94D2000C94D2000C94D200F8
:100040000C94D2000C94D2000C94D2000C94D200E8
:100050000C94D2000C94D2000C94D2000C94D200D8
:100060000C94D2000C94D2006E616E00696E660032
:1000700000407A10F35A00A0724E18090010A5D45F
:10008000E80000E87648170000E40B54020000CABC
:100090009A3B000000E1F505000080969800000002
:1000A00040420F000000A086010000001027000061
:1000B0000000E803000000006400000000000A00E7
:1000C000000000000100000000002C76D888DC67EA
:1000D0004F0823DFC1DFAE59E1B1B796E5E3E45342
:1000E000C63AE651997696E8E6C28426EB898C9B5F
:1000F00062ED407C6FFCEFBC9C9F40F2BAA56FA5FF
:10010000F490055A2AF75C936B6CF9676DC11BFC80
:10011000E0E40D47FEF520E6B500D0ED902E03009B
:10012000943577050080841E080000204E0A0000E8
:1001300000C80C333333330F986E12831141EF8DA7
:100140002114893BE65516CFFEE6DB18D1844B38E7
:100150001BF77C1D901DA4BBE424203284725E2218
:100160008100C9F124ECA1E53D2711241FBECFEF8A
:10017000D8E0DEBFCDBF11E0A0E0B1E0EAEAF1E1F6
:1001800002C005900D92A63AB107D9F721E0A6EA80
:10019000B1E001C01D92AE3AB207E1F70E94A7019B
:1001A0000C94D3080C9400002091840030918500B9
:1001B0008091840090918500821B930B80349F4135
:1001C000B8F30895CF93DF93EC01219718F4DF91F2
:1001D000CF9108950E94D400F8CFCF93DF9300D041
:1001E00000D0CDB7DEB7AC0181E086BB86E090E001
:1001F00021E0199932C081E086BB86E090E021E0E1
:10020000199B3FC081E086BB60918400709185009E
:1002100090E080E030E020E0E1E0241735070CF4C6
:100220003FC020918400309185002617370708F4DD
:100230000197092E000CAA0BBB0BDC01992788271C
:10024000261B370BAC01BD01420F531F611D711DF1
:1002500049835A836B837C8309C0B09BCACF26BB7A
:10026000019739F619821A821B821C8269817A8170
:100270008B819C810F900F900F900F90DF91CF9109
:100280000895B09BBDCF26BB019709F0B9CFEACF47
:10029000B09B06C0E6BB01968130F4E09F0714F7DF
:1002A0001999F6CF199B03C02F5F3F4FB6CFB09B74
:1002B000F9CFE6BB01968130F4E09F079CF3D2CFE3
:1002C00080E091E09093AB018093AA01519A5098FD
:1002D0001092C50089E18093C400E1ECF0E08081D8
:1002E0008860808380818061808386E08093C20003
:1002F00008959091C00095FFFCCF8093C6000895AB
:10030000CF93C82F8A3019F48DE00E9479018C2F89
:100310000E94790190E080E0CF9108958091C00023
:1003200087FFFCCF8091C60008958091C000881F90
:100330008827881F0895CF93DF93EC01899181115D
:1003400003C0DF91CF9108950E947901F7CFCDB717
:10035000DEB729970FB6F894DEBF0FBECDBF0E945F
:1003600060012198299A209A289A809181008160C1
:100370008093810084EF91E00E94E2008EE091E0A2
:100380000E94490805E811E08CE6E82E81E0F82E8D
:1003900093E0B92E84E690E00E94ED0069837A83B1
:1003A0008B839C8389819A81AB81BC811816190645
:1003B0001A061B060CF050C0BC01CD010E942B0692
:1003C00020E23CEB4EE35EE46D837E838F8398876F
:1003D0006D817E818F8198850E94B7059B01AC015C
:1003E00060E070E080E89FE30E94B7056B018987B9
:1003F0009D839C819F93AB81AF93BA81BF93898189
:100400008F939D819F93A985AF93DF92CF92FF92A7
:10041000EF920E9435080FB6F894DEBF0FBECDBF35
:1004200020E030EC41E455E499858D81C982DA827F
:100430009B838C8369817A818B819C810E94B70622
:10044000181644F485B1827085B988EC90E00E945A
:10045000E200A0CFB5B8F9CF1F930F930E943508E3
:100460000F900F90F2CFA5E1B0E0E9E3F2E00C9439
:10047000E0067C011B015A01DC0117961C921E92BA
:10048000169713968C9181FF68C3FE0131964F0138
:10049000D70113969C91F10193FD859193FF819172
:1004A0001F01882309F4EDC2853239F493FD85914B
:1004B00093FF81911F01853239F4B70190E00E94CA
:1004C000050865015601E4CF10E0512C00E0003230
:1004D00038F48B3209F190F48032F9F0833209F16B
:1004E00007FD34C020ED280F2A3020F506FF1BC081
:1004F000BAE01B9F200D1124122F05C08D3279F018
:10050000803371F70160F10193FD859193FF819133
:100510001F018111DCCF1AC002600460F4CF0860B3
:10052000F2CF0061F0CFEAE05E9E200D1124522E42
:100530000062E9CF8E3221F406FDA3C20064E3CF4E
:100540008C3611F40068DFCF8836E9F29BEB980F08
:10055000933008F073C00061805E06FF16E00F73F1
:10056000702E853609F071C0689476F877FE77C0F2
:10057000812F1C3308F08BE344244394480E27E07A
:10058000D5014D915D916D917D916D014C875D8798
:100590006E877F87042DA4016C857D858E859F8560
:1005A0000E9417075C01B981BC87B0FF04C06DE2EF
:1005B000662EB3FF0BC05BE2652E71FC07C0E72D12
:1005C000E4706E2E72FE02C070E2672E0C850C7015
:1005D00009F456C06110C4C2F3E000E0F51598F4C8
:1005E00083E0052D081B73FC07C0B70180E290E093
:1005F0000E9405080150C9F7662029F0B701862D31
:1006000090E00E940508FC8548E6A42E40E0B42E48
:10061000F3FD04C03CE6A32E30E0B32E172D10717D
:10062000F5018491811122C0002309F44BCFB70159
:1006300080E290E00E9405080150F6CF9BE9980FF8
:10064000933008F041C10F7E88CF863619F4689444
:1006500077F88CCF112309F489CF115087CF212F40
:10066000183010F027E017E0412C8ACF111180528A
:10067000B70190E00E9405082FEFA21AB20AD0CF6E
:1006800077FE78C04A0CFC85F4FF04C08A81813370
:1006900009F44A9414140CF090C028E0241510F4C6
:1006A00028E0422E85E090E077FE06C0C501B7FE47
:1006B00002C090E080E0019661100196112331F0B4
:1006C000212F30E02F5F3F4F820F931F58161906DE
:1006D00019F014F0052D081B872D897011F40111F4
:1006E00071C0662029F0B701862D90E00E940508B0
:1006F00073FC02C001116DC077FE98C0B98AA88A48
:10070000B7FE02C0198A188A68887988A501441939
:1007100051095D8B4C8B412E512C6627772764192C
:1007200075097B8B6A8BA614B7040CF459C08C89AD
:100730009D89861597050CF053C0F501E619F70958
:10074000E80DF91D818191E0691A7108AA89BB89B8
:100750006A167B060CF446C0B70190E00E940508BB
:10076000BFEF6B167B06F9F6B7018EE290E00E94B0
:100770000508D9CF76FC96CFE12FF0E0EA15FB050E
:100780003CF03CEFA3163FEFB30614F0689477F803
:100790003296E80DF91D01C01150112319F0829114
:1007A0008033D1F377FE7ECF44244394410E1A1553
:1007B0001B0431F02CF01A1975CF4424439472CFE6
:1007C00010E070CFB70180E290E00E940508015070
:1007D00086CFB70180E390E00E94050801508ACFE0
:1007E00080E3B1CF68897989615071094094509450
:1007F000E889F9894E165F06A4F4461A570A460E90
:10080000571EA414B50441F49A81963368F49533C5
:1008100019F4FC85F4FF08C0B70190E00E940508B8
:1008200003CF512C412CEBCF81E3F6CF8A8181336A
:1008300019F02C852F7E2C87B70190E00E940508C7
:100840001123A9F0B7018EE290E00E94050892E022
:10085000692E610E12E0E12F1F5FE80DF92DF11DE9
:100860008081B70190E00E9405086112F4CF85E60F
:1008700090E074FE02C085E490E0B7010E94050894
:10088000B7FC06C0A114B104C1F43C8534FF15C007
:10089000B194A194B1088DE2B70190E00E940508DF
:1008A00080E35AE0A516B10454F4B70190E00E9429
:1008B0000508B701C501C096B1CF8BE2EDCF8F5FC0
:1008C0004AE0A41AB108EDCF8336B9F0833709F4B2
:1008D0003CC0833509F04FC0D501AD90BD906D018E
:1008E000612F70E006FD02C06FEF7FEFC5010E942F
:1008F000EF073C01102F10680DC0650162E0C60EC5
:10090000D11CD5018C91898366246394712C540188
:10091000102F1F7713FD04C05614170409F020F59B
:10092000052D6114710409F47FCEF50117FD859141
:1009300017FF81915F01B70190E00E940508011146
:100940000150B1E06B1A7108ECCFF501A190B190A4
:100950006F01612F70E006FD02C06FEF7FEFC501F0
:100960000E94FA073C01D4CFB70180E290E00E94D8
:1009700005085A94D1CF843619F0893609F070C031
:1009800007FF65C0F50161917191819191916F01AE
:100990000F7697FF08C090958095709561957F4F71
:1009A0008F4F9F4F00682AE030E0A4010E94750835
:1009B000A82EA818BA2C602E06FF0BC0E89460F889
:1009C000A11638F404FF04C002FD02C00E7E602EA2
:1009D000B12E64FE9AC0FE01EA0DF11D80818033C4
:1009E00009F08CC0562D597E652E062D087063FCCB
:1009F0009BC060FE95C01A2DB51410F4150D1B197F
:100A000064FE98C0B70180E390E00E94050862FE92
:100A100009C088E790E061FE02C088E590E0B70178
:100A20000E940508A11608F491C0AA94B12C6FEF9A
:100A3000A61AB60AA80CB91CD5018E915D01B701A2
:100A400090E00E940508A814B904B1F7EDCDD501D6
:100A50006D917D916D01072E000C880B990B98CF3D
:100A6000702EE89474F82AE030E0853739F1B02F21
:100A7000B97F7B2E8037A9F058F48835A9F08F36DE
:100A8000D9F0F701868197816596E2E10C94FC0626
:100A90008837B9F774FE02C0689472F820E130E03C
:100AA0000DC0689474F8F6CF04FF03C0EB2FE66026
:100AB0007E2E20E132E002C028E030E077FE16C052
:100AC000D5014D915D916D917D916D014C875D8753
:100AD0006E877F87A4016C857D858E859F850E94AA
:100AE0007508A82EA818072D0F7764CFF5018191FE
:100AF00091916F01AC0170E060E0E8CF62FC02C050
:100B0000B39473CFB394B39470CF862D867809F4E1
:100B10006CCFF6CFB70180E290E00E940508B39455
:100B2000B514C0F300E06CCF052D0B19B51408F413
:100B300067CFF8CF862D867809F474CF8BE261FEFB
:100B400080E267FC8DE2B70190E06ACFB70180E3F5
:100B500090E00E940508115065CF8FEF9FEF94CF72
:100B600024E000E0251508F049CD84E03ACD0E944C
:100B7000CB050C947D060E94760658F00E946F0605
:100B800040F029F45F3F29F00C94660651110C9453
:100B9000B1060C946C060E948E0668F39923B1F39B
:100BA000552391F3951B550BBB27AA276217730793
:100BB000840738F09F5F5F4F220F331F441FAA1F27
:100BC000A9F335D00E2E3AF0E0E832D091505040E3
:100BD000E695001CCAF72BD0FE2F29D0660F771F91
:100BE000881FBB1F261737074807AB07B0E809F077
:100BF000BB0B802DBF01FF2793585F4F3AF09E3FFC
:100C0000510578F00C9466060C94B1065F3FE4F34E
:100C1000983ED4F3869577956795B795F7959F5F3E
:100C2000C9F7880F911D9695879597F90895E1E08A
:100C3000660F771F881FBB1F621773078407BA07E9
:100C400020F0621B730B840BBA0BEE1F88F7E09544
:100C50000895E89409C097FB3EF4909580957095AF
:100C600061957F4F8F4F9F4F9923A9F0F92F96E9F8
:100C7000BB279395F695879577956795B795F1116D
:100C8000F8CFFAF4BB0F11F460FF1BC06F5F7F4F0A
:100C90008F4F9F4F16C0882311F096E911C077231C
:100CA00021F09EE8872F762F05C0662371F096E825
:100CB000862F70E060E02AF09A95660F771F881FF4
:100CC000DAF7880F9695879597F9089597F99F67B2
:100CD00080E870E060E008959FEF80EC08950024C4
:100CE0000A941616170618060906089500240A9491
:100CF00012161306140605060895092E0394000C17
:100D000011F4882352F0BB0F40F4BF2B11F460FFA5
:100D100004C06F5F7F4F8F4F9F4F089557FD9058CE
:100D2000440F551F59F05F3F71F04795880F97FBAF
:100D3000991F61F09F3F79F0879508951216130669
:100D40001406551FF2CF4695F1DF08C01616170698
:100D50001806991FF1CF86957105610508940895CD
:100D6000E894BB2766277727CB0197F908950E945F
:100D7000BC0608F48FEF0895990F0008550FAA0BD1
:100D8000E0E8FEEF16161706E807F907C0F012169E
:100D90001306E407F50798F0621B730B840B950BA1
:100DA00039F40A2661F0232B242B252B21F40895F6
:100DB0000A2609F4A140A6958FEF811D811D089593
:100DC0002F923F924F925F926F927F928F929F925B
:100DD000AF92BF92CF92DF92EF92FF920F931F9349
:100DE000CF93DF93CDB7DEB7CA1BDB0B0FB6F894FA
:100DF000DEBF0FBECDBF09942A88398848885F843A
:100E00006E847D848C849B84AA84B984C884DF80AA
:100E1000EE80FD800C811B81AA81B981CE0FD11D8E
:100E20000FB6F894DEBF0FBECDBFED010895283098
:100E300008F027E03327DA01990F311D87FD916013
:100E400000966105710539F432602E5F3D9330E301
:100E50002A95E1F708959F3F30F0803871056105CC
:100E600009F03C5F3C5F3D93913008F08068911D34
:100E7000DF93CF931F930F93FF92EF92192F987FD9
:100E80009695E92F96959695E90FFF27E653FF4F24
:100E900099273327EE24FF24A701E7010590089442
:100EA000079428F4360FE71EF81E491F511D660FE0
:100EB000771F881F991F0694A1F70590079428F4BF
:100EC000E70EF81E491F561FC11D770F881F991F77
:100ED000661F0694A1F70590079428F4F80E491FA1
:100EE000561FC71FD11D880F991F661F771F0694B5
:100EF000A1F70590079420F4490F561FC71FD81F6C
:100F0000990F661F771F881F0694A9F78491109583
:100F1000177041F0D695C79557954795F794E79484
:100F20001A95C1F7E0E7F0E06894159015913591B6
:100F30006591959105907FE27395E118F10A430B55
:100F4000560BC90BD009C0F7E10CF11E431F561F09
:100F5000C91FD01D7EF4703311F48A95E6CFE89452
:100F6000015030F0080F0AF40027021708F4202F70
:100F70002395022F7A3328F079E37D932A95E9F7B8
:100F800010C07D932A9589F60694979567953795B5
:100F900017951794E118F10A430B560BC90BD009AA
:100FA00098F023957E9173957A3308F070E37C93E3
:100FB0002013B8F77E9170617D9330F0839571E3D3
:100FC0007D9370E32A95E1F71124EF90FF900F9144
:100FD0001F91CF91DF91992787FD90950895FC018E
:100FE0000590615070400110D8F7809590958E0F54
:100FF0009F1F0895FC016150704001900110D8F7C7
:10100000809590958E0F9F1F08950F931F93CF93F8
:10101000DF93182F092FEB018B8181FD09C01FEF92
:101020000FEF812F902FDF91CF911F910F91089596
:1010300082FF14C02E813F818C819D812817390742
:101040003CF4E881F981CF0101969983888310836C
:101050008E819F8101969F838E83E3CFE885F985FA
:10106000812F0995892BA1F3DACFB0E0A0E0EBE363
:10107000F8E00C94F006FE01359661917191AF0194
:101080008091AA019091AB010E943302E2E00C949E
:101090000C070F931F93CF93DF93E091AA01F09178
:1010A000AB01238110E000E021FD0EC00FEF1FEF28
:1010B000C801DF91CF911F910F9108950995892B58
:1010C00011F00FEF1FEFCE01EC0189916091AA01A1
:1010D0007091AB01DB011896ED91FC918111EECF7F
:1010E0008AE00995892B21F3E1CFFA01AA2728305C
:1010F00051F1203181F1E8946F936E7F6E5F7F4FE5
:101100008F4F9F4FAF4FB1E03ED0B4E03CD0670F60
:10111000781F891F9A1FA11D680F791F8A1F911DB3
:10112000A11D6A0F711D811D911DA11D20D009F403
:1011300068943F912AE0269F11243019305D319345
:10114000DEF6CF010895462F4770405D4193B3E02E
:101150000FD0C9F7F6CF462F4F70405D4A3318F0D5
:10116000495D31FD4052419302D0A9F7EACFB4E086
:10117000A6959795879577956795BA95C9F700973E
:101180006105710508959B01AC010A2E06945795DF
:10119000479537952795BA95C9F7620F731F841F36
:0A11A000951FA01D0895F894FFCFDD
:1011AA0000000002000000008001000000005065FD
:1011BA0072696F64206D6561737572656D656E74B1
:1011CA00207573696E67207468652066726565208C
:1011DA0072756E6E696E6720636F756E74657220C4
:1011EA006F662074696D657220312E0A436F6E6EC8
:1011FA00656374207369676E616C20746F20504256
:10120A0031202870696E203135292E00663D256609
:10121A00487A2028636F756E743D256C75292020E5
:10122A002020200D004E4F205349474E414C20208C
:10123A0020202020202020202020202020202020A4
:06124A002020200D000031
:00000001FF
